:020000040800F2
:10000000C005002005010008D1150008A111000855
:10001000091500087D0F00081B25000800000000DE
:100020000000000000000000000000002D1B000880
:10003000810F000800000000D5190008191C0008F5
:100040001F0100081F0100081F0100081F01000810
:100050001F0100081F0100081F0100081F01000800
:100060001F0100081F0100081F0100081F010008F0
:100070001F0100081F0100081F0100081F010008E0
:100080001F0100081F0100081F0100081F010008D0
:100090001F0100081F0100081F0100081F010008C0
:1000A0001F0100081F0100081F0100081F010008B0
:1000B0001F0100081F010008911D00081F01000812
:1000C0001F0100081F0100081F0100081F01000890
:1000D0001F010008ED2200081F0100081F01000891
:1000E0001F0100081F0100081F010008DFF810D0E1
:1000F00000F024FD00480047653F0008AFF3008092
:10010000C00500200648804706480047FEE7FEE796
:10011000FEE7FEE7FEE7FEE7FEE7FEE7FEE7FEE7B7
:100120001D1C0008ED000008F0B480EA0102D40FA5
:100130004200B2EB410F02D20246084611464A0085
:1001400042D0C30DDDB2C1F3C752AD1A202D35DA4E
:10015000C1F3160141F4000204B15242C5F1200678
:1001600002FA06F12A411044B3EBD05F23D0C4B1A8
:10017000012DA0EBC35009DCF0BC4FF0004202EAB5
:10018000C352DBB200F5000000F0F1BB400000F10B
:10019000807000EBC350A0F1807040EAD17049003C
:1001A00009E0490841EAC071A0EBC35000F5000026
:1001B000400800EBC350F0BC00F0D0BB614201220C
:1001C00002EB4101001BF6E7F0BC704781F00041F3
:1001D000AAE780F00040A7E780EA010210B502F02C
:1001E0000043400022D04A001FD0010E01EB1261F3
:1001F000C0F35600C2F3560240F4000042F400027D
:10020000A0FB022000047F39140400D0401C50EAF7
:10021000124001D44000491EC2B20C0604EBD010BB
:10022000401C4008802A02D003E0002010BD20F0CE
:100230000100002900DA0020184310BD30B480EA24
:10024000010202F0004530F0004221F0004013D0DE
:1002500090B1C30DD40DC2F31601C0F31600E41A19
:1002600041F4000140F400027D34914201D3641C4A
:1002700000E04900002C02DA30BC002070474FF447
:1002800000000023914201D3891A034340084FEA3A
:100290004101F7D151B1914202D14FF0004105E047
:1002A00002D24FF0010101E06FF0010103EBC450F5
:1002B000284430BC00F052BB2DE9FE4F804681EA55
:1002C0000300C00F0C46009021F0004123F00045D0
:1002D000B8EB0200A94105D24046214690461C4693
:1002E0000B46024623F00040104347D0270DC7F3CA
:1002F0000A00C3F30A510290401A019040286BDAB9
:10030000C3F3130040F4801B0098924620B10023F1
:10031000D2EB030A63EB0B0B01985946C0F1400284
:10032000504600F09CFA06460D4650465946019A42
:1003300000F0B4FA10EB08006141002487EA115282
:1003400084EAE7731A4340D0009A62B3019A012A03
:100350004FEA075215DC001B61EB02014FF000422F
:1003600002EA0752CDE90042001C41F580113246F5
:100370002B4600F039FB03B0BDE8F08F4046214624
:10038000F9E7001B61EB0201001C41F58013001826
:100390005B412018A2F5001747EB030140EAD57036
:1003A000B6196D4111E06D084FEA360645EAC07591
:1003B0004FEA0752001B61EB0201001C41F580115E
:1003C00049084FEA30000019514132462B4603B02C
:1003D000BDE8F04F00F0F9BA009801224000002378
:1003E000D0EB020263EBE073009821464FEAE07421
:1003F000B8EB000061EB0401E9E783F000435BE741
:1004000081F0004158E72DE9FE4F81EA030404F032
:10041000004421F0004100944FF0000B23F0004312
:1004200050EA01045ED052EA03045BD0C3F30A54DD
:10043000C1F30A552C44A4F2F3340194A0FB0254F6
:10044000C1F3130141F48011C3F3130343F4801388
:1004500001FB024400FB034E840A970A44EA8154DC
:1004600047EA8357A4FB076802958D0A05FB0785B9
:100470004FEA932C04FB0C542705029D4FEA0658C3
:1004800047EA1637B5EB08056EEB070C870E920EA0
:1004900047EA811742EA8312A7FB0201B6EB0B0180
:1004A00064EB00042B0D43EA0C335E1844EB1C5044
:1004B000DA465146E7FB0201C5F313044FEA0B335A
:1004C00043EA14534FEA0432019C43EA0603A4F1C1
:1004D0000C040294009CCDE900B400F085FA03B04E
:1004E000BDE8F08F00200146F9E72DE9F04D81EAE3
:1004F000030404F0004B21F0004514464FF0000ABD
:1005000023F0004150EA050220D054EA01021DD038
:10051000C5F30A570246C5F31303C1F31300C1F331
:100520000A5640F4801543F48013A7EB0608101B0D
:10053000D64608F2FD3873EB050002D308F1010836
:1005400001E092185B41B8F1000F03DA0020014688
:10055000BDE8F08D00204FF48011064684460EE081
:10056000171B73EB050705D3121B63EB050306434B
:100570004CEA010C49084FEA300092185B4150EAFE
:100580000107EDD152EA030012D082EA040083EAA7
:100590000501084305D0101BAB4106D20122002300
:1005A00006E000224FF0004302E06FF0010253101A
:1005B0001AEB06004CEB085110EB0A0041EB0B0163
:1005C000BDE8F04D00F001BAC10F80EAE0700844C8
:1005D000CA079623002100F0CAB9962300221146CB
:1005E00000F0C5B90EB5C10F80EAE0700844CA0733
:1005F000002140F233438DE80E000A460B4600F01E
:10060000F3F903B000BD0EB540F233410291002171
:10061000CDE900110A460B4600F0E6F903B000BD33
:1006200000F0004220F00040C10DC0F3160040F47D
:1006300000007F2901DA00207047962903DCC1F110
:100640009601C84001E096398840002AF4D0404223
:10065000704720F00040C10DC0F3160040F40000C8
:100660007F2901DA00207047962903DCC1F1960149
:10067000C840704796398840704770B5C1F30A5238
:1006800001F000450024C1F3130140F2FF3341F4AF
:1006900080119A4201DA002070BD40F233439A4241
:1006A000A2F2334203DC524200F0E8F800E090404E
:1006B0002C43F1D0404270BDC1F30A5210B5C1F3D2
:1006C000130140F2FF3341F480119A4201DA002015
:1006D00010BD40F233439A42A2F2334203DC52424D
:1006E00000F0CCF810BD904010BD00F0004230F09A
:1006F00000400AD0C10D01F56071C0F3160042EA56
:100700000151C2084007114370470020014670475D
:1007100030B5041E71F1000404DB4FF00044404288
:1007200064EB0101141E73F1000405DB1C464FF05D
:100730000043524263EB04038B4208BF824230BD48
:1007400030B5041E71F1000404DB4FF00044404258
:1007500064EB0101141E73F1000405DB1C464FF02D
:100760000043524263EB0403994208BF904230BDFC
:1007700001F0004330B421F0004150EA010206D0FC
:100780000A0DA2F56072C1F31301002A02DC30BC2D
:1007900000207047440F44EAC104C100E01830BC97
:1007A00000EBC25000F0DAB8002801DBC0F10040D5
:1007B000002901DBC1F1004181427047002801DBC3
:1007C000C0F10040002901DBC1F1004188427047BF
:1007D00030B50B46014600202022012409E021FA11
:1007E00002F59D4205D303FA02F5491B04FA02F50E
:1007F0002844151EA2F10102F1DC30BD2DE9F05FA5
:100800000546002092469B4688460646814640247F
:100810001BE0284641464746224600F02FF8534643
:100820005A46C01A914110D311461846224600F08C
:1008300016F82D1A67EB01084F46224601200021C9
:1008400000F00DF817EB00094E41201EA4F1010441
:10085000DFDC484631462A464346BDE8F09F202A61
:1008600004DB203A00FA02F1002070479140C2F107
:10087000200320FA03F3194390407047202A04DB39
:10088000203A21FA02F00021704721FA02F3D04009
:10089000C2F120029140084319467047202A06DB26
:1008A000CB17203A41FA02F043EAE07306E041FA3E
:1008B00002F3D040C2F1200291400843194670472C
:1008C0000FB4002300B589B00CA900910B996FF00B
:1008D0000042CB601E4B06931E4B07930423CDE9C9
:1008E00001321D4A089202466B46002000F0D2F900
:1008F00009B05DF814FB70B586B006464FF0FF30C6
:100900000091CDE90101002015460C4604903246C5
:10091000694604A8FFF7D4FF02460498211825B1C0
:1009200008B1084600E020462860049800280DD051
:10093000002A02DD0098884208D0081B0094CDE907
:1009400001043246694604A8FFF7BAFF06B070BD3D
:10095000CD0E0008EB0E0008610B00080029A8BFAF
:100960007047401C490008BF20F00100704710B4D8
:10097000B0FA80FC00FA0CF050EA010404BF10BC8D
:10098000704749B1CCF1200421FA04F411FA0CF1BA
:1009900018BF012121430843A3EB0C01CB1D4FEAF3
:1009A00000614FEA102042BF002010BC704700EBEE
:1009B000C35010440029A4BF10BC7047401C49001C
:1009C00008BF20F0010010BC704710B5141E73F171
:1009D000000408DA401C41F1000192185B411A43FF
:1009E00001D120F0010010BD2DE9F04D92469B464B
:1009F00011B1B1FA81F202E0B0FA80F220329046F1
:100A0000FFF72DFF04460F4640EA0A0041EA0B01BA
:100A100053465A46084313D0114653EA010019D0F1
:100A2000C8F140025046FFF729FF05460E465046E2
:100A300059464246FFF713FF084305D0012004E062
:100A400020463946BDE8F08D0020054346EAE076B1
:100A50002C4337430A986305E40AA0EB0800002200
:100A6000FD0A44EA47540A3002D500200146E9E76E
:100A7000010510196941DDE9084500196941BDE822
:100A8000F04DA2E72DE9FE4FC3F30A5701F00045F0
:100A90000024C1F30A56C3F31303C1F3130143F453
:100AA000801312EB020AA64641F48011009543EB35
:100AB000030CA7F1010B16E0B0EB0A0061EB0C018F
:100AC000071E71F1000707DA4FF00008D0EB0800AD
:100AD00085F0004568EB0101171A73EB0107EBD3B2
:100AE000761E001849415E45F6DA50EA010209D047
:100AF000CDE900E5002213460296FFF775FF03B02B
:100B0000BDE8F08F20460099F9E7C1F30A52C1F31E
:100B1000130140F2FF3341F480119A4202DA0020BF
:100B20000146704740F233439A42A2F2334202DC5C
:100B30005242FFF7A3BEFFF792BE0000064C074DDE
:100B400006E0E06840F0010394E80700984710349D
:100B5000AC42F6D3FFF7CEFA904B0008B04B00083A
:100B6000C0B24FF4F05100F0E9B900002DE9FF4F99
:100B7000087883B09946FF2805D0491C2D2804D059
:100B80000024002008E000200BE00124F9E700EB3E
:100B9000800003EB4000491C0B78FF2BF7D104B118
:100BA000404200230293147819461D462D2C01D093
:100BB0002B2C04D1521C2D2C13D000240294AA46B5
:100BC0001478FF2C0FD00A25A3FB057801FB0581C3
:100BD0004FF0000C03FB0C11521CE3194AEB01010E
:100BE000EEE70124EAE7814453EA010002D019F557
:100BF000C87F06DA03980021C0E9001107B0BDE8FC
:100C0000F08F0025AE4E2F46DFF8B882184600F070
:100C1000A9F9CDE90001B9F1000002DAC9F1000437
:100C200000E004460023A74A1AEB030B42EB045AE8
:100C300012E0E00707D02A46334638464146FFF720
:100C4000E2FB074688462A46334610461946FFF718
:100C5000DAFB05460E466410002CEAD1DDE90001FE
:100C6000B9F1000F5A46534606DAFFF73EFC3A4602
:100C70004346FFF73AFC05E0FFF7C5FB3A4643461B
:100C8000FFF7C1FB029A0AB181F00041039AC2E961
:100C90000001B3E72DE9FF4F1F468DB0D7E90146AC
:100CA0004FF0FF382E2045464FF000090B90B969F0
:100CB0006D1C0E988847396A824688470028F6D10D
:100CC000BAF1FF3F0AD024F4D064002E11DDBAF14E
:100CD0002B0F08D0BAF12D0F0BD102E0404611B016
:100CE0008DE744F48064B9696D1C0E98884782468C
:100CF000761E6946600501D52D2000E02B208DF879
:100D0000000001F1010B0DF1200809E0B9696D1C2B
:100D10000E98884782460F9844F40074761E05604A
:100D2000002E02DDBAF1300FF0D00B998A453ED18A
:100D300044F0800406E00F99681CA9F1010944F40D
:100D400000740860B9696D1C761E0E98884782464B
:100D50003028F0D02BE00B998A4505D1200603D42A
:100D600044F08004761E18E0504601F04FFD08B3B1
:100D70000DF11301761E44F400748B4508D2AAF1DC
:100D800030000BF8010B200607D5A9F1010003E0A4
:100D9000200602D409F101008146A00502D50F9971
:100DA000681C0860B9696D1C0E9888478246002E41
:100DB000D1DC53E0002E51DDBAF1650F02D0BAF15B
:100DC000450F4BD1A00549D5B9696D1C24F4407479
:100DD000761E0E9888478246002E0CDD2B2804D004
:100DE000BAF12D0F07D144F48074B9696D1C0E98C7
:100DF00088478246761EE00501D52D2100E02B2193
:100E000008F8011BCDF82C8021E00DF12901761E98
:100E100044F4007488450CD2AAF1300010F0FF00B1
:100E200088F8000002D10B99884509D908F101081A
:100E300006E0E00501D5244801E042F20F7081464A
:100E4000B9696D1C0E98884782460F980560002E80
:100E500004DD504601F0DAFC0028D6D1F9690E987D
:100E60008847FF208BF8000088F8000000200690DB
:100E700007904B466A4608A906A8FFF777FEA0052B
:100E800002D46FF001002AE714F0240F0AD0E00723
:100E900014D1DDE906123868031D3B600068C0E923
:100EA00000120BE0DDE90601FFF762FC0146E007F6
:100EB00004D13868021D3A600068016028460EE7D8
:100EC000000014400000F03FF1D8FFFF426842B13B
:100ED000016811F8013B23B1521EC0E90012184607
:100EE00070470121C160881E704742685AB1C368CB
:100EF000016843B983688B4205D0491E521CC0E982
:100F00000012002070474FF0FF30704770B521F09D
:100F1000004303430CD0C1F30A550024D5EB04056C
:100F200064EB0403D617AD1AB34102DB002001467F
:100F300070BD201841EB025170BD00007F2801D91F
:100F4000002208E0064A02EB5002C007127800D1E6
:100F5000120902F00F020120904008407047000083
:100F6000504B00080EB540F2334202920022CDE908
:100F700000221346FFF738FD03B000BD00BFFEE7B7
:100F80007047000008B501211D2000F045FD01213A
:100F9000144800F0B9F84FF40050ADF800001020EC
:100FA0008DF8030001208DF8020069460E4800F01C
:100FB0001FF84FF400510C4800F0EEF84FF40070A9
:100FC000ADF8000010208DF8030001208DF802001C
:100FD0006946064800F00CF84FF40071034800F031
:100FE000DBF808BD0002300000100140000C014099
:100FF0002DE9F041024600250026002000230024B0
:10100000002791F803C00CF00F0591F803C00CF015
:10101000100CBCF1000F03D091F802C04CEA05059A
:1010200091F800C0BCF1000F31D0146800202BE013
:101030004FF0010C0CFA00F3B1F800C00CEA030603
:101040009E4220D183004FF00F0C0CFA03F7BC43F3
:1010500005FA03FC4CEA040491F803C0BCF1280F24
:1010600006D14FF0010C0CFA00FCC2F814C00AE0E3
:1010700091F803C0BCF1480F05D14FF0010C0CFAF8
:1010800000FCC2F810C0401C0828D1D31460B1F88D
:1010900000C0BCF1FF0F34DD546800202EE000F1E9
:1010A000080C4FF0010808FA0CF3B1F800C00CEA84
:1010B00003069E4221D183004FF00F0C0CFA03F778
:1010C000BC4305FA03FC4CEA040491F803C0BCF1EC
:1010D000280F05D100F1080C08FA0CF8C2F81480AA
:1010E00091F803C0BCF1480F07D100F1080C4FF094
:1010F000010808FA0CF8C2F81080401C0828CED36A
:101100005460BDE8F0810000F0B50A4600230024D9
:101110000021002500F00046B6F1004F02D11D4E1F
:10112000F16901E01B4E7168C0F3034583B200F41E
:101130004016B6F5401F08D121F07061154E766853
:1011400026F07066134F7E6012E000F48016B6F54C
:10115000801F06D1032606FA05F4A14341F0706111
:1011600006E0460D360103FA06F6B14341F0706120
:1011700022B1460D360103FA06F6314300F000466F
:10118000B6F1004F02D1034EF16101E0014E7160F2
:10119000F0BD0000000001404161704701617047EF
:1011A00000BFFEE721B1028842F00102028004E0A4
:1011B00002884FF6FE731A400280704710B504464D
:1011C0000B48844209D10121480500F015FC00219B
:1011D0004FF4001000F010FC08E00121880500F039
:1011E0000BFC00214FF4800000F006FC10BD000055
:1011F0000054004021B1028842F40072028004E0F1
:1012000002884FF6FF531A40028070472DE9F043E1
:1012100085B004460D460026B1460427DFF8CC8091
:10122000A6884FF6C0700640684600F015FCDDF851
:1012300008802F48B8FBF0F01FFA80F946EA09064B
:10124000A68020884FF6FE7108402080002629499C
:10125000286888420CD828684000B8FBF0F087B2B4
:10126000042F00DA04273E4309F10100208427E01F
:10127000E8884BF6FF71884206D1286800EB4000F1
:10128000B8FBF0F087B209E0286800EBC00101EB81
:101290000010B8FBF0F087B247F48047C7F30B00AB
:1012A00008B947F0010747F4004006434FF4967031
:1012B00009FB00F04FF47A7190FBF1F0401C2084A0
:1012C000A683208840F00100208026884FF6F53064
:1012D0000640A8886989084306432680A889298989
:1012E0000843208105B0BDE8F083000000127A00B9
:1012F00040420F00A086010000B585B00121082002
:1013000000F08AFB0121480500F066FBC020ADF823
:1013100010001C208DF8130003208DF8120004A982
:101320001148FFF765FE1148FFF748FF0020ADF8B0
:1013300004004BF6FF70ADF806000020ADF8080081
:101340004FF48060ADF80A000001ADF80C000848C9
:10135000009069460548FFF759FF01210348FFF750
:1013600021FF05B000BD0000000C0140005400400A
:10137000801A06002DE9F04104464FF6FF752088DB
:1013800040F48070208005E0281EA5F1010501D100
:10139000BDE8F081A08A00F001000028F4D06C20A4
:1013A00020824FF6FF7504E0281EA5F1010500D14B
:1013B000EEE7A08A00F002000228F5D1268B0C206F
:1013C000208200BFA08A00F004000428FAD12088FF
:1013D00040F4006020804FF6FF75208840F4807054
:1013E000208004E0281EA5F1010500D1D0E7A08AE5
:1013F00000F001000028F5D04FF6FF756D20208227
:1014000004E0281EA5F1010500D1C1E7A08A00F083
:1014100002000228F5D172B6268B20884FF6FF31E4
:101420000840208062B600BFA08A00F004000428B3
:10143000FAD172B601212046FFF7DCFE208AC7B23E
:1014400062B6208A00F0FF0800BF208800F4007018
:10145000B0F5007FF9D0208840F48060208020889B
:101460004FF2FF7108402080701C86B208EB072005
:1014700080B28DE72DE9FC5F83465846FFF735F9CA
:1014800007460F4A0F4BFEF7BEFF81468A460E48BD
:101490000068FFF72AF907460C4A0D4BFEF7B3FF29
:1014A0004A465346CDE90001FEF706FF0546FFF721
:1014B0005FF90446044804602046BDE8FC9F000034
:1014C0009A9999999999B93F98000020CDCCCCCCA4
:1014D000CCCCEC3F10B54FF480500649086006486C
:1014E000FFF748FF054908600020054908600549E5
:1014F000086010BD9C00002000540040A4000020A3
:10150000A0000020A800002000BFFEE710B50DA03D
:1015100001F006F80E4801680E480068FFF74EF922
:1015200003D20B4800680B49086000200A49086094
:101530004FF400710948FFF731FE09A000F0F0FFF9
:1015400010BD00004D4F543A20496E69740D0A00D9
:10155000580000205C00002050000020000C0140DA
:101560004D4F543A20456E61626C65206472697615
:1015700065722E0D0A00000010B501F059FE02F050
:10158000C3FB0E490860052002F01EFB03F016F8AD
:101590000B490860052002F017FB02F0F7FF09492C
:1015A000086009480078022803D108460068074906
:1015B0000860C82002F008FB10BD0000AC0000204D
:1015C000240000201C00002045000020B000002066
:1015D0007047000070B5002100230F22C47804B3C7
:1015E000154C246804F4E064C4F5E064210AC1F1F8
:1015F0000403CA40447804FA03F184781440214378
:1016000009010E4C0678A155047804F01F05012449
:10161000AC4005786D11AD0005F1E025C5F800413D
:1016200009E0047804F01F050124AC40044D06785D
:10163000761145F8264070BD0CED00E000E400E0B6
:1016400080E100E02DE9F05F81464FF0E020846901
:101650003748006884420ED235490968081BFEF7F6
:10166000BCFF80463349FEF7E9FD07463249FEF7E5
:10167000B3FD054610E06FF07F41091B2C4A12684C
:101680008818FEF7AAFF80462A49FEF7D7FD0746CD
:101690002949FEF7A1FD054625480460002128469A
:1016A000FFF782F808D02846FFF71FF80746002208
:1016B000224BFFF745F800D2214D224801684846E9
:1016C000FEF78AFD8346204801684846FEF77EFD06
:1016D00080461E4801684046FEF77EFD07462946C3
:1016E000FEF7ACFD824651465846FEF71DFD064604
:1016F0001748006880F0004731463846FFF75EF82B
:1017000004D21348006880F0004009E010480168E6
:101710003046FFF753F802D20D48006800E030462B
:1017200006460948C0F800903046BDE8F09F00002A
:101730009400002000001041BD3786350000E03FD6
:101740006F12833A7000002084000020780000208F
:101750006800002012481349086080071249086099
:1017600012481349086000201249086012490860B5
:10177000124908604FF0E020806911490860114863
:10178000114908604FF07C50104908600020104952
:1017900008604FF0E02080690E4908607047000043
:1017A000CDCCCC3D6C000020740000200000C8426D
:1017B000880000207C000020800000208C00002099
:1017C00090000020000020417000002078000020E0
:1017D00084000020940000202DE9F04F8DB0834656
:1017E0004FF0E02084696F48006884420ED26D4952
:1017F0000968081BFEF7F1FE80466B49FEF71EFDE7
:1018000007466A49FEF7E8FC054610E06FF07F41A5
:10181000091B644A12688818FEF7DFFE8046624999
:10182000FEF70CFD07466149FEF7D6FC05465D480C
:10183000046000212846FEF7B7FF08D02846FEF7CF
:1018400054FF074600225A4BFEF77AFF00D2594D4B
:10185000594801685846FEF7BFFC0C90574801688C
:101860005846FEF761FC0746FEF73FFFCDE904014D
:10187000294653480068FEF7AFFC0190FEF735FF9C
:10188000074600224A4BFEF7BEFDCDE90201DDE925
:101890000423FEF7B8FDCDE908014A480068FEF7C9
:1018A00024FFCDE90601DDE90823FEF705FDCDE9BA
:1018B0000A01FEF75DFF06464348006880F00047D6
:1018C00031463846FEF77AFF04D23F48006880F080
:1018D000004009E03C4801683046FEF76FFF02D245
:1018E0003948006800E03046064631460C98FEF75D
:1018F0001BFC81463448006880F000474946384662
:10190000FEF75CFF04D23048006880F0004009E038
:101910002D4801684846FEF751FF02D22A48006868
:1019200000E048468146294801684846FEF74EFCDB
:1019300007462946FEF782FC824625480168504644
:10194000FEF73CFF0CD2294621480068FEF744FC14
:1019500007461E4801683846FEF7E6FB814614E05C
:101960001B48006880F0004751463846FEF726FFC6
:101970000BD2294616480068FEF72EFC074613488E
:1019800001683846FEF725FC81460E4806600F4880
:10199000C0F800900948C0F800B048460DB0BDE856
:1019A000F08F00009000002000001041BD37863508
:1019B0000000E03F6F12833A6C000020800000209E
:1019C000740000207C000020580000208C000020C3
:1019D000880000207047000029B1064AD2690243FE
:1019E000044BDA6104E0034AD2698243014BDA61B5
:1019F000704700000010024029B1064A12690243F4
:101A0000044B1A6104E0034A12698243014B1A61D4
:101A1000704700000010024029B1064A9269024353
:101A2000044B9A6104E0034A92698243014B9A6134
:101A3000704700000010024029B1064AD2680243F4
:101A4000044BDA6004E0034AD2688243014BDA6057
:101A5000704700000010024030B500210022002431
:101A600000232D4D6D6805F00C0121B1042905D02E
:101A7000082923D105E0294D056022E0274D0560A6
:101A80001FE0254D6D6805F47012234D6D6805F457
:101A90008034022505EB92421CB9214D5543056067
:101AA0000BE01D4D6D6805F400351DB11C4D55430F
:101AB000056002E0194D5543056002E0174D0560D1
:101AC00000BF00BF144D6D6805F0F0010909154D08
:101AD0006B5C0568DD4045600F4D6D6805F4E061A5
:101AE000090A104D6B5C4568DD4085600A4D6D68E4
:101AF00005F46051C90A0B4D6B5C4568DD40C5605B
:101B0000054D6D6805F44041890B074D6B5CC56858
:101B1000B5FBF3F5056130BD0010024000127A00FC
:101B200000093D000000002010000020704710B5A3
:101B300000F002F810BD00000CB5002001900090EC
:101B40003348006840F480303149086000BF3048B5
:101B5000006800F4003000900198401C019000984B
:101B600018B90198B0F5A06FF1D12948006800F4C8
:101B7000003010B10120009001E00020009000989A
:101B8000012843D12348006840F010002149086033
:101B90000846006820F0030008600846006840F02E
:101BA000020008601A4840681949486008464068C1
:101BB00048600846406840F48060486008464068D5
:101BC00020F47C1048600846406840F4E810486003
:101BD0000846006840F08070086000BF0C4800684C
:101BE00000F000700028F9D00948406820F0030098
:101BF000074948600846406840F00200486000BF5E
:101C00000348406800F00C000828F9D10CBD000022
:101C100000100240002002407047000010B5134839
:101C2000006840F00100114908600846406810490A
:101C300008400E494860084600680E4908400B49B4
:101C400008600846006820F4802008600846406864
:101C500020F4FE0048604FF41F008860FFF767FF24
:101C60004FF000600449086010BD00000010024001
:101C70000000FFF8FFFFF6FE08ED00E000B589B0B8
:101C800001210420FFF7C8FE01210846FFF7A4FE4A
:101C90000720ADF8200018208DF8230003208DF8D0
:101CA000220008A92448FFF7A3F94FF0804000F074
:101CB000A7F80020ADF8140040F29F50ADF81800CE
:101CC0002020ADF816000020ADF81A0005A94FF04D
:101CD000804000F0B9FA6020ADF804000120ADF8B2
:101CE00006000020ADF80A00ADF80C0001A94FF085
:101CF000804000F093F901A94FF0804000F0E4F932
:101D000001A94FF0804000F03FFA0821C80600F01A
:101D1000D1F90821C80600F029FA0821C80600F008
:101D200083FA0121880700F04FF80121880700F0AD
:101D30005AF809B000BD0000000801401FB501219C
:101D40000420FFF749FE1E208DF8000001208DF8C9
:101D500003006846FFF73EFC40F2E730ADF80800AC
:101D60004720ADF804000020ADF80600ADF80A00E9
:101D700001A9064800F068FA01221146034800F064
:101D800044F90121014800F02EF81FBD0008004071
:101D900010B50121094800F027F9012809D10848A8
:101DA0000068401C0649086006480068401C054958
:101DB00008600121014800F013F810BD0008004040
:101DC000B4000020B800002021B1028842F0800257
:101DD000028004E002884FF67F731A400280704749
:101DE000CA430282704721B1028842F00102028098
:101DF00004E002884FF6FE731A400280704700002C
:101E000010B504466848844208D10121C014FFF788
:101E100013FE0021E014FFF70FFEC4E0B4F1804F81
:101E200008D101210846FFF7E7FD00210120FFF757
:101E3000E3FDB8E05D48844208D101210220FFF7AC
:101E4000DBFD00210220FFF7D7FDACE058488442BB
:101E500008D101210420FFF7CFFD00210420FFF766
:101E6000CBFDA0E05348844208D101210820FFF7B0
:101E7000C3FD00210820FFF7BFFD94E04E488442D7
:101E800008D101211020FFF7B7FD00211020FFF736
:101E9000B3FD88E04948844208D101212020FFF7A2
:101EA000ABFD00212020FFF7A7FD7CE044488442E1
:101EB00008D101214014FFF7BFFD00216014FFF796
:101EC000BBFD70E03F48844209D10121C804FFF7FF
:101ED000B3FD00214FF40020FFF7AEFD63E03A4868
:101EE000844209D101210805FFF7A6FD00214FF426
:101EF0008010FFF7A1FD56E03448844209D101214A
:101F00004805FFF799FD00214FF40010FFF794FDFD
:101F100049E02F48844208D101214020FFF76CFDA1
:101F200000214020FFF768FD3DE02A48844208D1A7
:101F300001218020FFF760FD00218020FFF75CFD7C
:101F400031E02548844208D101218015FFF754FD76
:101F50000021A015FFF750FD25E02048844209D15B
:101F600001210804FFF768FD00214FF48030FFF7DE
:101F700063FD18E01A48844209D101214804FFF7A3
:101F80005BFD00214FF40030FFF756FD0BE01548D4
:101F9000844208D101218804FFF74EFD00214FF44F
:101FA0008020FFF749FD10BD002C014000040040D7
:101FB00000080040000C00400010004000140040E9
:101FC00000340140004C01400050014000540140E9
:101FD00000180040001C004000200040004001406C
:101FE000004401400048014030B502460020002373
:101FF0000024158A05EA0103958905EA010413B155
:102000000CB1012000E0002030BD1AB183890B43E0
:10201000838102E083898B438381704770B50024FC
:1020200000220023058C4FF6FE7635400584028C95
:102030008388048B4FF68F752C40B51E2C400D887D
:102040002C43751E2A400D892A434D882A43144D7E
:10205000A8420BD0134DA84208D0134DA84205D07A
:10206000124DA84202D0124DA84213D14FF6F77577
:102070002A404D892A434FF6FB752A408D882A4312
:102080004FF6FF652B404FF6FF552B408D892B43B4
:10209000CD892B4383800483CD888586028470BDDF
:1020A000002C014000340140004001400044014048
:1020B000004801400A460021018B4FF6F773194092
:1020C000114301837047000070B5002400220023F3
:1020D000058C4FF6EF7635400584028C8388048B9F
:1020E00048F6FF752C404FF6FF452C400D884FF603
:1020F000FF7606EA05252C434FF6DF752A400D8949
:1021000006EA05152A434D8806EA05152A43154DAA
:10211000A84202D0144DA8421DD14FF67F752A4027
:102120004D894FF6FF7606EA05152A434FF6BF752F
:102130002A408D8806EA05152A434FF6FF352B40C5
:102140004FF2FF752B408D8906EA85052B43CD891B
:1021500006EA85052B4383800483CD8805870284A6
:1021600070BD0000002C0140003401400A460021EF
:10217000018B4FF2FF7319404FF6FF7303EA0223FE
:10218000194301837047000070B50024002200232A
:10219000058C4FF6FF6635400584028C8388848B5E
:1021A0004FF68F752C404FF6FC752C400D882C4354
:1021B0004FF6FF552A400D894FF6FF7606EA0525B2
:1021C0002A434D8806EA05252A43154DA84202D028
:1021D000144DA8421DD14FF2FF752A404D894FF68C
:1021E000FF7606EA05252A434FF6FF352A408D88FB
:1021F00006EA05252A434EF6FF752B404DF6FF757E
:102200002B408D8906EA05152B43CD8906EA051575
:102210002B4383808483CD888587028470BD000032
:10222000002C0140003401400A460021818B4FF60A
:10223000F773194011438183704781867047018786
:102240007047818770470000002202881D4B98422A
:102250000ED01D4B98420BD0B0F1804F08D01B4BD5
:10226000984205D01A4B984202D01A4B984204D19A
:102270004FF68F731A404B881A43174B984207D07A
:10228000164B984204D04FF6FF431A40CB881A43AE
:1022900002808B8883850B8803850A4B98420BD07C
:1022A000094B984208D00E4B984205D00D4B9842EE
:1022B00002D00D4B984201D10B7A03860123838211
:1022C00070470000002C0140003401400004004031
:1022D00000080040000C00400010004000140040C6
:1022E00000400140004401400048014010B540F268
:1022F0002551204800F050F800283AD01D4800F041
:1023000007F9C4B21C48008800F40040F8B91A4824
:10231000008800F4804090B10A2C03D000201649B8
:10232000088026E01448008840F4004012490880E4
:1023300000200988C1F30D01104A505419E00D2CFA
:1023400006D10D48008840F480400B49088010E019
:1023500009480088C0F30D0008490C54064800885D
:10236000401C0549088008460088FF2801DD002040
:10237000088010BD0038014018000020C000002077
:1023800021B1828942F40052828104E082894DF6B3
:10239000FF731A408281704770B502460024002303
:1023A0000025002040F66A16B14200D100BFC1F3FB
:1023B000421501F01F03012606FA03F3012D02D195
:1023C0009689334006E0022D02D1168A334001E09F
:1023D000968A33400C12012606FA04F4168834401B
:1023E00013B10CB1012000E0002070BDF0B5034630
:1023F000002400260025002040F66A17B94200D1CB
:1024000000BF1846C1F3421401F01F06012707FA66
:1024100006F5012C01D10C3004E0022C01D1103062
:1024200000E014301AB107682F43076002E0076824
:10243000AF430760F0BD00002DE9F04786B00546C8
:102440000E460024A24600BFA1460027B08900B175
:1024500000BF2F462C8A4CF6FF700440F0880443DE
:102460002C82AC894EF6F3100440B08831890843C1
:10247000718908430443AC81AC8A4FF6FF400440A5
:10248000B0890443AC8201A8FFF7E6FA1F488742EF
:1024900002D1DDF810A001E0DDF80CA0A88900F45D
:1024A000004040B10AEBCA0000EB0A103168490055
:1024B000B0FBF1F807E00AEBCA0000EB0A10316844
:1024C0008900B0FBF1F86420B8FBF0F004012009AA
:1024D000642101FB1089A88900F4004040B132203A
:1024E00000EBC900B0FBF1F000F00700044308E086
:1024F000322000EB09106421B0FBF1F000F00F0076
:1025000004432C8106B0BDE8F0870000003801408C
:1025100001468888C0F30800704700BFFEE700004E
:102520000FB4054B10B503A9044A029800F0A0F9B6
:1025300010BC5DF814FB0000ED3C00081400002006
:10254000490050EAC12018BF04204A0D18BF40F0CE
:10255000010040F2FF72B2EB515F08BF40F0020091
:10256000012808BF052070472DE9F0414F1E00EB00
:10257000C7010446D1E9000115461E4637F00602A0
:102580000DD02A463346FDF73EFF7F1E04EBC703FE
:10259000D3E90023FDF790FE37F00602F1D1022FB8
:1025A00025D0042F13D0062F18BFBDE8F0812A468E
:1025B0003346FDF728FFD4E90A23FDF77DFE2A46BE
:1025C0003346FDF720FFD4E90823FDF775FE2A46C0
:1025D0003346FDF718FFD4E90623FDF76DFE2A46C2
:1025E0003346FDF710FFD4E90423FDF765FE2A46C4
:1025F0003346FDF708FFD4E90223FDF75DFE2A46C6
:102600003346FDF700FFD4E90023BDE8F041FDF7B4
:1026100053BE0122FEF77ABCFDF74EBE00221346E0
:1026200010461146FDF761BF024A00201107FEF770
:102630006DBC000001FDFFFF01480068704700000D
:10264000BC00002002E008C8121F08C1002AFAD10D
:1026500070477047002001E001C1121F002AFBD122
:10266000704700000149086070470000BC0000206E
:1026700070B504460D462846FDF7A6FF06462146DE
:10268000FDF7AAFD70BD00002DE9FF5F82B00021BB
:10269000DDE90430020DDDF840B0034318D044F604
:1026A0001050A2F2FF3242431514119801281FD096
:1026B000A5EB0B00401C5FEA000A4FF000064E4FEE
:1026C000DFF83891B046504615D5CAF1000413E042
:1026D000119801244AA3012801D16FEA0B01029845
:1026E000119AC0E90031C0E9024206B0BDE8F09F8E
:1026F000CBF10000DFE704460021404A491842EBD5
:102700000450CDE9001012E0E00707D032463B4606
:1027100040464946FDF777FE8046894632463B46AD
:1027200010461946FDF76FFE06460F466410002C52
:10273000EAD1DDE90401DDE90023BAF1000F06DA90
:10274000FDF761FE42464B46FDF75DFE05E0FDF7F5
:10275000CCFE42464B46FDF7C8FE04460E4600221C
:10276000284BFDF7EDFF03D84FF0FF30014607E09F
:102770000022254B20463146FDF79EFDFEF7C5F9A8
:10278000102409E0002C0ADB0A220023FEF736F8A9
:10279000039B30321A55641E50EA0102F2D1641CC8
:1027A000039AC4F111031444119A012A03D001229F
:1027B00008430DD10AE0084304D000204FF0110B6C
:1027C000119072E7A3EB0B056D1E0DE05B4504DD78
:1027D0004FF0000205F1010504E003DA4FF00002BA
:1027E000A5F10105002AECD002981199C0E9023147
:1027F000C0E9004579E70000000014400000F03F08
:10280000300000000000F0430000E03F30380A28AC
:1028100001D2012070470020704700002DE9F047E9
:1028200006463046FDF761FF07460F4A0F4B01F0A1
:1028300013FA0446FDF79CFF814600214846FDF748
:10284000BDFF03D84846FDF750FF07E04846FDF7B7
:102850004CFF0746044A054BFDF72EFD0446FDF7E5
:1028600087FFBDE8F0870000EA2E4454FB211940A1
:102870002DE9FF4F95B09A46884606460025EEE1C1
:10288000252877D100242746F94A0121039400E046
:10289000044316F8013F203B01FA03F01042F7D140
:1028A00030782A2811D06FF02F033078A0F1300251
:1028B000092A16D8039A44F0020402EB820203EBC1
:1028C00042021044761C0390EFE758F8042B039261
:1028D000002A03DA504244F40054039044F0020406
:1028E000761C30782E2816D116F8010F44F0040417
:1028F0002A280DD06FF02F023078A0F13003092B79
:1029000009D807EB870302EB4303C718761CF3E7EC
:1029100058F8047B761C30786C280FD006DC4C28E5
:1029200017D068280DD06A2814D104E0742810D07C
:102930007A280FD10DE044F400140AE044F4801426
:1029400001E044F440147278824202D104F580140C
:10295000761C761C307866280BD013DC582877D08C
:1029600009DC002875D04528F6D04628F4D0472841
:102970001AD193E118E0632835D0642879D065280E
:1029800012D18BE1702873D008DC6728F1D0692858
:102990006FD06E280DD06F2806D1ACE073282CD0F4
:1029A000752874D0782853D05246179990476D1CDB
:1029B00054E1C4F30250022809D003280DD0D8F8FE
:1029C000001004280DD00D6008F1040846E1D8F885
:1029D0000010EA17C1E90052F6E7D8F800100D80A0
:1029E000F2E70D70F0E718F8041B8DF800100020D6
:1029F0008DF80100EB46012003E058F804BB4FF0CE
:102A0000FF3061074FF0000102D40DE009F1010130
:102A10008946B9420FDA8145F8DB1BF80910002915
:102A2000F4D108E009F1010189468142FADB1BF883
:102A300009100029F6D103985346A0EB0907214657
:102A40003846179A00F080FA284400EB090507E0A1
:102A500044E008E10DE01BF8010B5246179990473E
:102A6000B9F10109F7D2534621463846179AF2E0E8
:102A700039E00A21C4F302524FF0000B0091022A00
:102A800006D058F8040BC117032A09D00AE023E046
:102A900008F1070020F00702F2E80201904605E085
:102AA00000B2C117042A01D140B2C117002906DAC9
:102AB0000A460021404261EB02012D2202E022057C
:102AC00004D52B228DF80420012203E0E20701D077
:102AD0002022F7E7914657E00A2100E010214FF04D
:102AE000000B00910BE010214FF0000B44F00404A8
:102AF0000827009103E008204FF0000B0090C4F37A
:102B00000252022A05D058F8040B0021032A08D0EB
:102B100008E008F1070020F00702F2E80201904601
:102B200003E080B2042A00D1C0B24FF000092207AE
:102B30002AD53278702A07D0DDF800C08CF0100C4E
:102B40005CEA0B0C05D00EE040228DF80420012237
:102B500008E050EA010306D030238DF804308DF8E8
:102B6000052002229146009B83F0080353EA0B03E1
:102B70000AD150EA010201D1620705D530228DF851
:102B800004204FF001097F1E3278582A04D039A260
:102B90000C920CAA02920BE03BA2F9E75B46009A6A
:102BA000FDF72CFE0C9B9B5C029A521E0292137046
:102BB00050EA0102F2D1029804A9081A00F1200B90
:102BC000600702D524F4803400E001275F4502DD70
:102BD000A7EB0B0000E0002000EB0B010090039836
:102BE0004944401A0390E00306D453462146179AFD
:102BF000039800F0A9F90544002706E001A8524611
:102C0000C05D179990476D1C7F1C4F45F6DBE003B4
:102C10000CD553462146179A039800F095F90544C0
:102C200004E030205246179990476D1C0099481EC9
:102C300000900029F5DC08E00298029952460078DD
:102C4000491C0291179990476D1CBBF10001ABF133
:102C5000010BF1DC5BE100F065F90544761C30788E
:102C600000287FF40DAE19B02846BDE8F08F0000B3
:102C70000928010030313233343536373839616252
:102C80006364656600000000303132333435363716
:102C9000383941424344454600000000600700D4F3
:102CA000062708F1070020F00700F0E8022380461D
:102CB00003F0004C5FEA0C0001D097A009E020056A
:102CC00001D596A005E0E00701D095A001E0AFF2A4
:102CD0004C001390307823F0004365280CD006DCBC
:102CE000452809D046281DD047287FD13BE06628DB
:102CF00018D067287AD136E00021112F01DB11208E
:102D000000E0781CCDE9000104A90CA8FFF7BCFC89
:102D1000DDE90D010C9A4FF0000B07F1010910924B
:102D200000914EE04FF000400097CDE9011004A95A
:102D30000CA8FFF7A9FCDDE90D020C9B0F994FF0E1
:102D4000000B91461093009211B9791C00EB010918
:102D5000B7EB090003D4C0F1FF3B07F10109A9EB70
:102D60000700019042E0012F00DA01270021112F16
:102D700001DD112000E03846CDE9000104A90CA8CE
:102D8000FFF782FCDDE90D010C9A00914FF0000B7A
:102D9000B946109221070FD4009A4A4503DA9146AA
:102DA00001E0A9F10109B9F1010F05DD109AA9F1BE
:102DB0000101515C3029F4D0B84202DA10F1040F5D
:102DC00003DA0121CDE9011010E0002803DC83447F
:102DD000A9EB000102E0411C494500DD8946A0EB5A
:102DE0000B00401C01904FF000400290200705D4DA
:102DF0000198484502DB4FF0FF30019000208DF82C
:102E00004B0002980DF14B07B0F1004F25D0022086
:102E10000C902B200D90029800280CDA4042029072
:102E20002D200D9007E00A210298FDF7D1FC3031EA
:102E3000029007F8011D0C99481E0C900029F2DC45
:102E400002980028EFD1791E0D980870307800F0B4
:102E5000200040F0450007F8020D11A8C01BC01D5E
:102E600002901398007800B1012000EB090101984D
:102E700001EBE071029801440398401A401E039050
:102E8000E00306D453462146179A039800F05CF8F5
:102E900005441398007818B15246179990476D1C55
:102EA000E00323D553462146179A039800F04CF8C7
:102EB00005441BE0BBF1000F07DB0098584504DD1B
:102EC0001098179910F80B0001E01799302052461E
:102ED000904701980BF1010B401E05F1010501908F
:102EE00004D12E205246179990476D1CB9F100016C
:102EF000A9F10109DEDC05E017F8010B524617992C
:102F000090476D1C0299481E02900029F4DC53463C
:102F10002146179A03989EE62D0000002B00000022
:102F2000200000002DE9F041044600251E4617460A
:102F3000880404D405E039462020B0476D1C641E87
:102F4000F9D52846BDE8F0812DE9F0410446002579
:102F50001E469046C80301D5302700E0202788048C
:102F600004D505E041463846B0476D1C641EF9D5CE
:102F70002846BDE8F08100002DE9FF5F83465846F2
:102F8000FDF7B3FB0446954A954BFDF7C1FB44D2D0
:102F90005846FDF7AAFB934A934BCDE90201FDF792
:102FA00032FA804600221346FDF7CAFB12D8584673
:102FB000FDF79BFB80468B4A8B4BFDF724FA0022E2
:102FC0008A4BCDE90001FDF777F9CDE90201FDF764
:102FD00054FB11E05846FDF788FB824A824BCDE94D
:102FE0000001FDF710FA0022804BCDE90201FDF748
:102FF00004FA8046FDF741FB7D4951F820A0504678
:10300000FDF7F0FA06467B4A7B4BFDF7FCF90446D8
:10301000FDF7AEFB04B0BDE8F09F5846FDF765FB39
:103020000446764A764BFDF773FB44D25846FDF7CB
:103030005CFB6C4A6C4BCDE90201FDF7E4F980467C
:1030400000221346FDF77CFB12D85846FDF74DFBD6
:10305000644A654BCDE90001FDF7D5F90022634BC9
:10306000CDE90201FDF728F98046FDF706FB11E0E6
:103070005846FDF73AFB5B4A5B4BCDE90001FDF793
:10308000C2F90022594BCDE90201FDF7B6F980469D
:10309000FDF7F3FAC0F5C770554951F820A0504626
:1030A000FDF7A0FA0646534A534BFDF7ACF9044628
:1030B000FDF75EFBAEE75846FDF717FB0446514AA5
:1030C000514BFDF725FB44D25846FDF70EFB454A10
:1030D000454BCDE90201FDF796F9804600221346E3
:1030E000FDF72EFB12D85846FDF7FFFA3D4A3E4B3E
:1030F000CDE90001FDF787F9804600223B4BFDF743
:10310000DBF8CDE90201FDF7B8FA11E05846FDF70A
:10311000ECFA344A344BCDE90001FDF774F98046EE
:103120000022324BFDF769F9CDE90201FDF7A5FA5E
:10313000A0F5C7702E4951F820A05046FDF752FA6D
:1031400006462C4A314BFDF75EF90446FDF710FBAD
:1031500060E75846FDF7C9FA8046224A224BFDF740
:1031600052F900221346CDE90201FDF7E9FA12D81F
:103170005846FDF7BAFA1B4A1B4BCDE90001FDF793
:1031800042F980460022194BFDF796F8CDE902017D
:10319000FDF773FA11E05846FDF7A7FA8046114A89
:1031A000114BFDF730F90022104BCDE90001FDF77E
:1031B00024F9CDE90201FDF760FAC0F547700C492A
:1031C00051F820A05046FDF70DFA0646094A0F4B6C
:1031D000FDF719F90446FDF7CBFA1BE7F4D6435483
:1031E000FB21F93F9CA223B9FCAB5F400000E03F0C
:1031F000904700082D431CEBE2361A3FEA2E445458
:10320000FB210940320D337F7CD91240E2361ABFD0
:1032100070B5044625462E460448A0EB66063546A2
:1032200029462046FCF7D8FF70BD0000865A375F5C
:103230002DE9F04F87B090A0FFF772F9002421E04C
:103240002046FDF7CFF9924A924BCDE90001FDF7F8
:10325000DAF806460022904BFDF747F98F4A904B6B
:10326000CDE90201FDF728F88146FDF781FA804695
:10327000424600218B48006800F072FF022000F0F7
:10328000A3FC641CB4F5FA7FDADD00F03DFD059087
:103290004FF4FA7421E02046FDF7A4F981467C4AF8
:1032A0007C4BFDF7B0F800227B4BCDE90001FDF728
:1032B0001CF90646794A7A4BFCF7FEFFCDE902017C
:1032C000FDF756FA8046424600217648006800F035
:1032D00047FF022000F078FC641E002CDBDA00F0CF
:1032E00013FD049000221146104600F039FFC8205B
:1032F00000F06AFC0598FDF7F8F9064632460B46E1
:1033000069A0FFF70DF90498FDF7EFF9064632467C
:103310000B466AA0FFF704F9DDE90410FCF756FF3D
:103320008146FDF7E2F921F000410646FDF720FA5B
:103330000546DDE90410FDF737FA08D02846FDF709
:10334000D4F90646624A634BFDF7E2F90BD262A05C
:10335000FFF7E6F84FF400716A48FDF71DFF002003
:1033600007B0BDE8F08FDDE90410FDF71DFA07D2C4
:1033700065A0FFF7D5F84FF0FF306B49086005E016
:103380006AA0FFF7CDF80120674908606EA0FFF73B
:10339000C7F871480068FDF717F929460390FCF754
:1033A0001BFF8346FDF7A1F90646394A394BFDF765
:1033B00024F821F0004181460022684BFDF7C0F956
:1033C0001DD267A0FFF7ACF82846FDF78EF98146BD
:1033D0004A460B462E482F49FDF787F800225F4BDF
:1033E000CDE90201FCF768FF0646FDF746F95A49A8
:1033F00008600846016860A0FFF792F802E060A04C
:10340000FFF78EF8604A00212648006800F0A8FE09
:103410004FF42F7000F0D8FB00F076FC8146424854
:103420000068FDF7D1F882464946FCF7D5FE07460D
:10343000494801683846FFF71BF90646FFF7EEF9E1
:1034400052490860142000F0BFFB51A0FFF768F854
:103450004E480068FDF749F9064632460B4652A031
:10346000FFF75EF800221146104600F079FEC820F2
:1034700000F0AAFB012073E74D4F543A20416C69DC
:10348000676E2073656E736F722E0D0A0000000068
:10349000EA2E4454FB21194000407F40320D337F17
:1034A0007CD912405C0000206D69645F616E676CBE
:1034B000653D252E34660D0A00000000656E645FD0
:1034C000616E676C653D252E34660D0A00000000B4
:1034D0007B14AE47E17A943F4D4F543A20466169E0
:1034E0006C656420746F206E6F74696365206D6F06
:1034F00076656D656E74206C6F6F703232322E0D92
:103500000A000000000C01404D4F543A2073656ED4
:10351000736F725F646972656374696F6E3D3D437A
:1035200043570D0A00000000500000204D4F543A50
:103530002073656E736F725F646972656374696F1F
:103540006E3D3D43570D0A004D4F543A20505020D8
:10355000636865636B3A2000600000200000E03F74
:103560006661696C202D20657374696D6174656492
:103570002070703A0000000025640D0A0000000071
:103580004F4B210D0A000000E4CB96404C00002078
:103590004D4F543A205A65726F20656C65632E203A
:1035A000616E676C653A0000252E34660D0A0000D6
:1035B0002DE9FC5F06464FF0E02084695048006822
:1035C000844215D24E490968081BFDF706F84D499B
:1035D0000090FCF733FE0190FDF787F882464A4AD7
:1035E0004A4BFCF710FF0746FDF7C2F8054617E007
:1035F0006FF07F41091B424A12688818FCF7EDFF03
:1036000040490090FCF71AFE0190FDF76EF807465E
:103610003D4A3E4BFCF7F7FE8246FDF7A9F805460A
:103620003748046000212846FDF7BEF808D0284638
:10363000FDF75BF807460022354BFDF781F800D215
:10364000344D294634480068FCF7C6FD0190FDF76B
:103650004CF807468846314801683046FCF7B6FD0D
:103660000190FDF742F821F0004182463A46434678
:10367000FDF766F82FD2294801683046FCF7A6FD11
:1036800000210190FDF790F802D24FF0FF300CE0DE
:10369000224801683046FCF799FD00210190FDF7B2
:1036A0008DF801D2012000E000208346FCF78CFF5A
:1036B0008246194801685046FCF78EFD804629462F
:1036C000FCF78AFD0746154801683846FCF72CFDD3
:1036D0001249086001E0114806601148D0F80090D6
:1036E000104801680D480068FEF7C2FF07463A46D9
:1036F0000021484600F034FD4846BDE8FC9F00002C
:1037000064000020000010418DEDB5A0F7C6B03E6A
:103710000000E03F6F12833A680000201C00002088
:1037200058000020600000202DE9F84F04460D46A7
:1037300021F0004000917349814211DC72498842B6
:1037400001DC06D12CB120462946BDE8F84FFEF732
:1037500060BF6E48002DCCBF6D496E49BDE8F88F43
:103760006D49814211DD6D498142D8BF4FF0FF366E
:103770006DDD20462946FEF7E3FE042808BFFEF76C
:1037800053FF20462946BDE8F88F6549654F25F06F
:103790000045814233DD6449814219DD002632460D
:1037A0004FF0804320462946FCF786FD80468A4636
:1037B000012220462946FDF7A9FB00223B46FCF7E3
:1037C0001CFE42465346FCF790FE04460D463EE082
:1037D00001260022BA463B4620462946FCF76CFDEE
:1037E00080460F460022534620462946FCF705FE38
:1037F00042463B46FCF779FE04460D4627E04B491E
:1038000081421BDDDFF828A1022600225346204614
:103810002946FCF7F8FD00223B46FCF74DFD8046AB
:103820000F460022534620462946FCF7E6FD424655
:103830003B46FCF75AFE04460D4608E003262246A6
:103840002B4600203B49FCF750FE04460D4622461D
:103850002B4610461946FCF7D6FD8B46824602469B
:103860000B46FCF7D0FD07460246334888460B4618
:1038700006217844FEF778FE52465B46FCF7C3FD0E
:1038800082462E488B463A46434605217844FEF749
:103890006BFE3A464346FCF7B6FD02460B46002E49
:1038A000504659460CDAFCF707FD22462B46FCF73A
:1038B000AAFD01B022462B46BDE8F04FFCF7A0BDA3
:1038C000FCF7FAFC22462B46FCF79DFD1C4A7A4485
:1038D00002EBC603D3E90023FCF78FFD22462B46FB
:1038E000FCF78BFD174A7A4402EBC603D3E90023A9
:1038F000FCF786FD009A002AB8BF81F00041BDE8C0
:10390000F88F0000000010440000F07F182D445490
:10391000FB21F93FFB21F9BF0000DC3F0000203E06
:103920000000F33F0000F03F0000E63F008003404E
:103930000000F83F0000F0BFA2120000601200007B
:10394000FE110000C61100002DE9F04D9446CCF1A7
:10395000000423F000464CEA0404594F46EAD474AC
:103960009A46884621F00042BC4206D8454240EAC9
:10397000050442EAD474BC4204D9BDE8F04D624665
:10398000FEF74ABEAAF14055A5F17F6555EA0C0441
:103990000BD0022404EAAA744A4DDFF82CE144EA71
:1039A000D87452EA000B04D00CE0BDE8F04DFFF7EC
:1039B000BBBE002C14BF012CBDE8F08D022C30D012
:1039C000032C32D056EA0C0B0AD0BE4220D1BA42A8
:1039D00009D126F0804622F080423346114617E096
:1039E00000291ADB25E0DFF8E4B0FB44002C04BF1B
:1039F000DBE90001BDE8F08D012C02BFDBE900012D
:103A000081F00041BDE8F08D022C0AD0032C0CD0CF
:103A1000BA4212D1B8F1000F0BDA2A482C49BDE89E
:103A2000F08D28462B49BDE8F08D28467146BDE84B
:103A3000F08D24482849BDE8F08D921B12153C2AD0
:103A4000C4BF204F244E10DCBAF1000FBEBF12F1EC
:103A50003C0F00273E4608DB6246FCF746FD21F09E
:103A60000041FFF761FE07460E4694B1012C08BFE6
:103A700086F000460DD0194A194B022C38463146C3
:103A800015D0FCF7BAFC2A46BDE8F04D114BFCF707
:103A9000B4BC0022134638463146FCF739FE04BF59
:103AA0000220FEF7DFFD38463146BDE8F08DFCF719
:103AB000A4FC2A46BDE8F04D064BFCF7A1BC000073
:103AC0000000F07F182D4454FB2109C05A1100005A
:103AD000FB21F9BFFB210940FB21F93F075C1433AF
:103AE00026A6A13C30B583B00446FEF7A5FD0546E9
:103AF0000020CDE90000024621466846FCF7FBFEA7
:103B00002846FEF7AFFDDDE9000103B030BD00003F
:103B100070B52048008800F40040002838D01E48C6
:103B2000007844281ED0452825D0482802D05428A3
:103B30002AD103E019A0FEF7F3FC25E01648401C4B
:103B4000FFF7D0FF0446FCF713FE1849086008464B
:103B50000068FCF7CAFD044622460B4614A0FEF797
:103B6000DFFC11E04FF400711448FDF715FB14A0C1
:103B7000FEF7D6FC08E04FF400711048FDF70EFB8D
:103B80000FA0FEF7CDFC00BF00BF00200149088058
:103B900070BD000018000020C000002048656C6C5B
:103BA0006F20576F726C64210D0A0000B000002076
:103BB00052583D252E34660D0A000000000C0140CD
:103BC0004F4B210D0A000000014642F228324A43C1
:103BD0004FF0E0235A6100229A611A46126942F0BE
:103BE00001021A6100BF4FF0E022106900F00102EB
:103BF0001AB100F48032002AF5D04FF0E0221269A9
:103C000022F001024FF0E0231A6100229A6170470E
:103C10002DE9F0410C480068FCF7D6FC06460B483D
:103C200001680B480068FCF77FFA07463146FCF74D
:103C3000D3FA0546074801682846FCF7C7FA044648
:103C4000FEF7ECFDBDE8F081600000204800002098
:103C50001C0000204C00002070B514461D460E4686
:103C6000002814BF01210021314321F00041C1F19E
:103C70007F6101F1E041C90F16D1002C14BF012171
:103C80000021294321F00041C1F17F6101F1E041B0
:103C9000C90F09D11449B1EB460F08BF00281CD049
:103CA000690008BF002C18D03146FCF7EBFE024635
:103CB00040F2FF7030EA11500DD0F017B0EBE17F09
:103CC00009D0084665F31E0084460B46204661462F
:103CD000FCF796FB0246104670BD0120FEF7C2FCC1
:103CE000BDE87040FEF79ABC0000E0FF00BF054A47
:103CF000128802F04002002AF9D0C2B2014B1B1D0B
:103D00001A807047003801402DE9F04F85B03448E3
:103D1000FDF730FB0446FCF760FC82463148006842
:103D2000FCF752FC04465146FCF753FA04902E4827
:103D30000068FCF757FC06462C4A2D4BFCF763FB4A
:103D4000804689460498FCF7D0FC21F000410446E7
:103D500042464B46FCF7F4FC19D200210498FCF7CC
:103D60002DFD02D22348244901E022482349804600
:103D7000894623480068FCF7B8FC064642464B4695
:103D8000FCF79AFA0446FCF7F3FC1D49086050461C
:103D9000FCF746FC1349086013480068FCF714FC64
:103DA000014601905046FCF749FA8346FCF79DFC1A
:103DB000104A124BCDE90201FCF725FB04460D46E3
:103DC0000F480068FCF791FC064622462B46FCF79C
:103DD00073FA8046FCF7CCFC05B0BDE8F08F00001C
:103DE00000540040A40000209C0000209A9999995A
:103DF0009999E93FEA2E4454FB2119C0FB2119404F
:103E0000A00000202DE9FC5F4FF0E02084692A48E3
:103E10000068844215D228490968081BFCF7DDFBBD
:103E200026490090FCF70AFA0190FCF75EFC8246F6
:103E3000234A244BFCF7E7FA0746FCF799FC0546B2
:103E400017E06FF07F41091B1B4A12688818FCF7C6
:103E5000C4FB1A490090FCF7F1F90190FCF745FC0E
:103E60000746174A174BFCF7CEFA8246FCF780FC50
:103E7000054600212846FCF797FC08D02846FCF7A9
:103E800034FC07460022104BFCF75AFC00D20F4DC1
:103E9000FFF73AFF06460E4801683046FCF796F9F0
:103EA00007462946FCF7CAF98146094806600248D8
:103EB00004604846BDE8FC9FA800002000001041B7
:103EC0008DEDB5A0F7C6B03E0000E03F6F12833A1B
:103ED000AC00002010B515480078042803D0134822
:103EE0000078032800D110BD00F050FB1049086095
:103EF000FFF78EFE0F4908600F48007820B10128B7
:103F000003D0022803D101E005E004E003E00BA0A8
:103F1000FEF706FB00BF00BF114A11685068054A52
:103F2000126800F01DF900BFDDE700004500002029
:103F30001C00002020000020440000204D4F543A77
:103F4000206E6F20746F7271756520636F6E74726E
:103F50006F6C2073656C65637465642100000000FC
:103F6000340000200024FDF70DF84FF4E13000F09C
:103F700043FBFDF7C1F928A0FEF7D2FAFDF77EFE5C
:103F8000FDF7DCFE4FF47A70FFF71EFEFDF7A2FA94
:103F90002448254908600720244908602448254909
:103FA0000860254825490860254826490860002002
:103FB000254908700120254908700020244908601F
:103FC000FDF7A4FAFDF7D8FAFDF7C4FB21A0FEF730
:103FD000A7FA00F005FB1EE0641C22480068C82810
:103FE00008D300201F4908601F48C06880F40050B3
:103FF0001D49C8601D480068B0F57A7F03D30020D2
:104000001A49086000241248006800F031F8FFF7F0
:1040100061FFFFF77DFDDFE74153353630300D0A94
:10402000000000000000404154000020600000201B
:104030000000C040580000200000A041680000209F
:10404000000020405C0000204400002045000020CB
:10405000B00000204D6F746F722072656164792E1C
:104060000D0A0000B400002000100140B80000203C
:1040700070B5044600F0A2FA314908603148007872
:1040800005285AD2DFE800F0032E0C454F002E48D9
:10409000007810B92D48446001E02D4804604CE0E0
:1040A0002C4804602C4801682A480068FCF78EF808
:1040B0000546FDF7C7FA29490860214801682748E5
:1040C0000068FCF783F80546FDF786FB2049086089
:1040D0001D48007828B9084600681C49486000203F
:1040E00008602AE01D480460154801681B48006804
:1040F000FCF76CF80546FDF76FFB154908601248A0
:10410000007828B908460068104948600020086017
:1041100013E012480460006800F0BEFA0B494860E2
:104120000020086009E00B4804600068FFF740FACF
:10413000064948600020086000BF00BF70BD000055
:10414000240000204500002044000020340000200E
:1041500028000020300000201C0000202C0000203F
:104160002DE9F74F96B082468B4600215846FCF762
:104170001BFB38D051465046FCF72EF8594611909B
:104180005846FCF729F810901199FBF7CDFF1290D3
:10419000FFF73EF81390EF4801681398FCF74EF8CC
:1041A00080465846FCF7A1FACDE90A015046FCF7D3
:1041B0009CFACDE90801DDE90A23FFF7C5FBCDE94B
:1041C0000E011898FCF791FACDE90C01DDE90E23F8
:1041D000FCF772F8CDE91001FCF7CAFA1390FEF76C
:1041E0001DFB189016E0DB4801685046FCF726F8E6
:1041F00080461898FCF779FAD74AD84BCDE90E01DA
:10420000FCF75AF8CDE91001FCF7B2FA1390FEF76B
:1042100005FB18904046FCF768FAD14AD14BCDE92E
:104220001201FCF78DFA01D2DFF83C834046FCF71F
:104230005CFACB4ACD4BCDE91201FCF769FA01D209
:10424000DFF82C831898FCF750FACA4ACA4BCDE91C
:104250000E01FCF74AF90022C84BCDE91001FCF72A
:104260002BF8CDE91201FCF727FA07464046FCF788
:104270003CFACDE910011898FCF737FACDE90601B0
:104280003846FCF7C0F9BB4ABB4BCDE90201FCF74D
:10429000BAF8CDE90401DDE90623FCF7AEF8CDE973
:1042A0000801FCF765FA0A90FEF766FE0B90FCF732
:1042B0001CFAB34AB34BCDE90C01FCF7A4F8CDE9E5
:1042C0000E01DDE91023FCF79EF8CDE91201FCF7A1
:1042D0004FFA81464046FCF708FACDE9100138460E
:1042E000FCF791F90022A54BCDE90001FCF785F818
:1042F000A04AA14BCDE90201FCF785F8CDE9060102
:104300001898FCF7F2F9CDE90401DDE90623FCF782
:1043100074F8CDE90801FCF72BFA0A90FEF72CFEA1
:104320000B90FCF7E2F9964A964BCDE90C01FCF7AD
:104330006AF8CDE90E01DDE91023FCF764F8CDE958
:104340001201FCF715FA149049464FF07E50FBF726
:104350003DFF13901499FBF739FF1590072F7DD27D
:10436000DFE807F0C60424446486A6004FF08041CD
:104370001598FBF763FF139048461499FBF7D4FE9A
:1043800012901399FBF7D0FE04464FF08041159828
:10439000FBF754FF13901499FBF7C6FE05464FF048
:1043A00080411598FBF74AFF0646A5E04FF0804193
:1043B0001598FBF743FF49461390FBF7B5FE0446FB
:1043C0004FF080411598FBF739FF13904846149938
:1043D000FBF7AAFE12901399FBF7A6FE05464FF0D5
:1043E00080411598FBF72AFF064685E04FF0804193
:1043F0001598FBF723FF04464FF080411598FBF713
:104400001DFF139048461499FBF78EFE12901399E6
:10441000FBF78AFE05464FF080411598FBF70EFF2B
:1044200013901499FBF780FE064665E04FF080413B
:104430001598FBF703FF04464FF080411598FBF7F2
:10444000FDFE49461390FBF76FFE05464FF0804195
:104450001598FBF7F3FE1390484600E048E01499E6
:10446000FBF762FE12901399FBF75EFE064643E0EF
:104470004FF080411598FBF7E1FE13901499FBF77C
:1044800053FE04464FF080411598FBF7D7FE0546D2
:104490004FF080411598FBF7D1FE139048461499D0
:1044A000FBF742FE12901399FBF73EFE064623E00F
:1044B0004FF080411598FBF7C1FE139048461499C0
:1044C000FBF732FE12901399FBF72EFE04464FF0D5
:1044D00080411598FBF7B2FE05464FF080411598D4
:1044E000FBF7ACFE49461390FBF71EFE064603E0C1
:1044F00000240025002600BF00BF23492046FBF70B
:104500006BFE1290FCF7A5F880B2014613904FF0B5
:104510008040FDF792FE1C492846FBF75DFE129095
:10452000FCF797F880B2014613904FF08040FDF7FA
:1045300086FE15493046FBF74FFE1290FCF789F8CE
:1045400080B2014613904FF08040FDF77AFE19B01B
:10455000BDE8F08F54000020F4D64354FB21F93F0E
:10456000105839B4C876E23F46B6133FC876E2BF6A
:1045700046B613BF40AF2D3852C1F03F0000F03FA8
:104580006B6058E87AB6FB3F0000B44470B5FFF7A3
:10459000BBFB054607480068FCF716F806462946A7
:1045A000FBF71AFE0446044801682046FBF70EFE9E
:1045B00070BD0000500000204800002070B5FFF7DB
:1045C00021FC0646FCF756FF044604480068FBF74A
:1045D000FBFF05462146FBF7FFFD70BD50000020A4
:1045E00004484FF0E0214861002088610120086103
:1045F00070470000FEFFFF0010B586B004460121A1
:1046000044F20400FDF708FA4FF40070ADF814000E
:1046100003208DF8160018208DF8170005A91C48F6
:10462000FCF7E6FC4FF48060ADF8140004208DF830
:10463000170005A91648FCF7DBFC25208DF80000C3
:1046400003208DF801008DF8020001208DF8030091
:104650006846FCF7BFFF01940020ADF80800ADF8F4
:104660000A00ADF80C00ADF810000C20ADF80E00FB
:1046700001A90848FDF7E0FE012240F22551054856
:10468000FDF7B4FE01210348FDF77AFE06B010BD28
:1046900000080140003801402DE9F14F82B04FF091
:1046A000E020846931480068844215D22F490968A6
:1046B000081BFBF792FF2E490190FBF7BFFD8346D5
:1046C000FCF713F881462B4A2B4BFBF79CFE064662
:1046D000FCF74EF8054617E06FF07F41091B234AAF
:1046E00012688818FBF779FF21490190FBF7A6FDB6
:1046F0008346FBF7FAFF06461E4A1F4BFBF783FE75
:104700008146FCF735F80546184804600021284624
:10471000FCF74AF808D02846FBF7E7FF06460022D8
:10472000164BFCF70DF800D2154D29460298FBF701
:1047300053FD0746134801683846FBF7F5FC06466B
:10474000FEF76CF80F4908600F48D0F800800F485A
:1047500001680C480068FDF78BFF064632460021D1
:104760004046FFF7FDFC4046BDE8FE8F6400002098
:10477000000010418DEDB5A0F7C6B03E0000E03F4F
:104780006F12833A1C0000205800002060000020B7
:10479000000000004F0000009E000000ED0000003F
:1047A0003C0100008B010000D9010000280200003C
:1047B00077020000C602000015030000630300003A
:1047C000B2030000000400004F0400009D0400003C
:1047D000EC0400003A05000088050000D605000042
:1047E0002406000072060000C00600000E0700004C
:1047F0005B070000A9070000F6070000430800005F
:1048000090080000DD0800002A0900007709000078
:10481000C30900000F0A00005C0A0000A80A00009B
:10482000F40A00003F0B00008B0B0000D60B0000C9
:10483000210C00006C0C0000B70C0000010D000002
:104840004C0D0000960D0000E00D0000290E000048
:10485000730E0000BC0E0000050F00004E0F00009C
:10486000960F0000DF0F0000271000006E10000000
:10487000B6100000FD100000441100008B11000074
:10488000D1110000171200005D120000A2120000FA
:10489000E81200002D13000071130000B613000091
:1048A000F91300003D14000081140000C41400003E
:1048B00006150000491500008B150000CC150000FE
:1048C0000E1600004F1600008F160000CF160000D5
:1048D0000F1700004F1700008E170000CD170000C3
:1048E0000B1800004918000087180000C4180000C9
:1048F000011900003D19000079190000B5190000E8
:10490000F01900002B1A0000661A00009F1A000020
:10491000D91A0000121B00004B1B0000831B000073
:10492000BB1B0000F21B0000291C0000601C0000E3
:10493000961C0000CB1C0000001D0000351D00006F
:10494000691D00009D1D0000D01D0000031E000019
:10495000351E0000671E0000981E0000C91E0000E2
:10496000FA1E0000291F0000591F0000881F0000C8
:10497000B61F0000E41F0000112000003E200000D0
:104980006A20000096200000C1200000EC200000FA
:104990001621000040210000692100009221000042
:1049A000BA210000E1210000082200002F220000AF
:1049B000552200007A2200009F220000C32200003E
:1049C000E72200000A2300002D2300004F230000EF
:1049D0007023000091230000B2230000D1230000C7
:1049E000F12300000F2400002D2400004B240000C0
:1049F0006824000084240000A0240000BB240000E0
:104A0000D5240000EF240000092500002225000025
:104A10003A25000052250000692500007F2500008E
:104A200095250000AA250000BF250000D325000021
:104A3000E6250000F92500000B2600001D260000D9
:104A40002E2600003E2600004E2600005D260000B7
:104A50006C2600007A2600008726000094260000BD
:104A6000A0260000AB260000B6260000C0260000ED
:104A7000CA260000D3260000DB260000E326000043
:104A8000EA260000F1260000F7260000FC260000C0
:104A90000127000005270000082700000B27000061
:104AA0000D2700000F27000010270000102700002E
:104AB0004FBB610567ACDD3F182D4454FB21E93F36
:104AC0009BF681D20B73EF3F182D4454FB21F93F25
:104AD000E2652F227F2B7A3C075C143326A6813CAB
:104AE000BDCBF07A8807703C075C143326A6913C56
:104AF000C4EB98999999C9BF711623FEC671BCBFC2
:104B00006D9A74AFF2B0B3BF9AFDDE522DDEADBF29
:104B10002F6C6A2C44B4A2BF0D5555555555D53F41
:104B2000FF8300922449C23F6E204CC5CD45B73F5C
:104B3000513DD0A0660DB13FEB0D76244B7BA93FD4
:104B400011DA22E33AAD903F0000000000000000BF
:104B5000DDDDDDDDDCBBBBDDDDDDDDDDDDDDDDDDCA
:104B6000988888888888888877777777778888880A
:104B700085555556666666666666666666688888A2
:104B80008333333222222222222222222228888D9B
:104B9000B04B000800000020C000000044260008C0
:104BA000704C0008C00000200005000054260008DA
:104BB00000000000010203040102030406070809C3
:104BC00002040608000000000000000000000000D1
:104BD00000000000000000000000000000000000D5
:104BE00000000000000000000000000000000000C5
:104BF00000000000000000000000000000000000B5
:104C000000000000000000000000000000000000A4
:104C10000000000000000000000000000000000094
:104C20000000000000000000000000000000000084
:104C30000000000000000000000000000000000074
:104C40000000000000000000000000000000000064
:104C50000000000000000000000000000000000054
:104C60000000000000000000000000000000000044
:04000005080000ED02
:00000001FF
